:020000040000FA
:1000000085013D30A2001728A000030E8312A10035
:10001000A20B1128051A0E2805160F2805123D30CF
:10002000A2000B11210E8300A00E200E0900073044
:10003000990083160B308500033095000110811064
:10004000011581118112811383120B118B168B17ED
:100050003B20851832284320851832283B20851CF8
:100060002F282928851929284320851929283B204C
:10007000851D382829280515432005114E20851691
:100080004320851254286E30A300000000000000B9
:10009000000000000000A30B45280800FA30A4006F
:1000A0004320A40B502808000830A5004E20A50BC3
:0400B00056280800C6
:02400E00943FDD
:084200004D005A000500020008
:00000001FF
